{
  "contractName": "Document",
  "abi": [
    {
      "inputs": [],
      "stateMutability": "nonpayable",
      "type": "constructor"
    },
    {
      "inputs": [],
      "name": "count",
      "outputs": [
        {
          "internalType": "uint256",
          "name": "",
          "type": "uint256"
        }
      ],
      "stateMutability": "view",
      "type": "function"
    },
    {
      "inputs": [
        {
          "internalType": "uint256",
          "name": "",
          "type": "uint256"
        }
      ],
      "name": "docs",
      "outputs": [
        {
          "internalType": "string",
          "name": "name",
          "type": "string"
        },
        {
          "internalType": "string",
          "name": "to",
          "type": "string"
        },
        {
          "internalType": "string",
          "name": "imageurl",
          "type": "string"
        },
        {
          "internalType": "string",
          "name": "issuedBy",
          "type": "string"
        },
        {
          "internalType": "string",
          "name": "issuedon",
          "type": "string"
        },
        {
          "internalType": "string",
          "name": "desc",
          "type": "string"
        },
        {
          "internalType": "string",
          "name": "validtill",
          "type": "string"
        }
      ],
      "stateMutability": "view",
      "type": "function"
    },
    {
      "inputs": [],
      "name": "manager",
      "outputs": [
        {
          "internalType": "address",
          "name": "",
          "type": "address"
        }
      ],
      "stateMutability": "view",
      "type": "function"
    },
    {
      "inputs": [
        {
          "internalType": "string",
          "name": "name",
          "type": "string"
        },
        {
          "internalType": "string",
          "name": "to",
          "type": "string"
        },
        {
          "internalType": "string",
          "name": "imageurl",
          "type": "string"
        },
        {
          "internalType": "string",
          "name": "issuedBy",
          "type": "string"
        },
        {
          "internalType": "string",
          "name": "issuedon",
          "type": "string"
        },
        {
          "internalType": "string",
          "name": "desc",
          "type": "string"
        },
        {
          "internalType": "string",
          "name": "validtill",
          "type": "string"
        }
      ],
      "name": "senddocument",
      "outputs": [],
      "stateMutability": "nonpayable",
      "type": "function"
    },
    {
      "inputs": [
        {
          "internalType": "string",
          "name": "walletaddress",
          "type": "string"
        }
      ],
      "name": "getdocuments",
      "outputs": [
        {
          "components": [
            {
              "internalType": "string",
              "name": "name",
              "type": "string"
            },
            {
              "internalType": "string",
              "name": "to",
              "type": "string"
            },
            {
              "internalType": "string",
              "name": "imageurl",
              "type": "string"
            },
            {
              "internalType": "string",
              "name": "issuedBy",
              "type": "string"
            },
            {
              "internalType": "string",
              "name": "issuedon",
              "type": "string"
            },
            {
              "internalType": "string",
              "name": "desc",
              "type": "string"
            },
            {
              "internalType": "string",
              "name": "validtill",
              "type": "string"
            }
          ],
          "internalType": "struct Document.Doc[]",
          "name": "",
          "type": "tuple[]"
        }
      ],
      "stateMutability": "nonpayable",
      "type": "function"
    }
  ],
  "bytecode": "0x608060405234801561001057600080fd5b50336000806101000a81548173ffffffffffffffffffffffffffffffffffffffff021916908373ffffffffffffffffffffffffffffffffffffffff16021790555061159b806100606000396000f3fe608060405234801561001057600080fd5b50600436106100575760003560e01c806306661abd1461005c57806323389c5a1461007a5780632616fb3f146100b0578063481c6a75146100e057806356c3867b146100fe575b600080fd5b61006461011a565b6040516100719190611281565b60405180910390f35b610094600480360381019061008f9190610e80565b610120565b6040516100a797969594939291906111c1565b60405180910390f35b6100ca60048036038101906100c59190610cf9565b61051a565b6040516100d7919061119f565b60405180910390f35b6100e86109f0565b6040516100f59190611184565b60405180910390f35b61011860048036038101906101139190610d3a565b610a14565b005b60025481565b600160205280600052604060002060009150905080600001805461014390611435565b80601f016020809104026020016040519081016040528092919081815260200182805461016f90611435565b80156101bc5780601f10610191576101008083540402835291602001916101bc565b820191906000526020600020905b81548152906001019060200180831161019f57829003601f168201915b5050505050908060010180546101d190611435565b80601f01602080910402602001604051908101604052809291908181526020018280546101fd90611435565b801561024a5780601f1061021f5761010080835404028352916020019161024a565b820191906000526020600020905b81548152906001019060200180831161022d57829003601f168201915b50505050509080600201805461025f90611435565b80601f016020809104026020016040519081016040528092919081815260200182805461028b90611435565b80156102d85780601f106102ad576101008083540402835291602001916102d8565b820191906000526020600020905b8154815290600101906020018083116102bb57829003601f168201915b5050505050908060030180546102ed90611435565b80601f016020809104026020016040519081016040528092919081815260200182805461031990611435565b80156103665780601f1061033b57610100808354040283529160200191610366565b820191906000526020600020905b81548152906001019060200180831161034957829003601f168201915b50505050509080600401805461037b90611435565b80601f01602080910402602001604051908101604052809291908181526020018280546103a790611435565b80156103f45780601f106103c9576101008083540402835291602001916103f4565b820191906000526020600020905b8154815290600101906020018083116103d757829003601f168201915b50505050509080600501805461040990611435565b80601f016020809104026020016040519081016040528092919081815260200182805461043590611435565b80156104825780601f1061045757610100808354040283529160200191610482565b820191906000526020600020905b81548152906001019060200180831161046557829003601f168201915b50505050509080600601805461049790611435565b80601f01602080910402602001604051908101604052809291908181526020018280546104c390611435565b80156105105780601f106104e557610100808354040283529160200191610510565b820191906000526020600020905b8154815290600101906020018083116104f357829003601f168201915b5050505050905087565b6060806000600190505b60025481116109e657838051906020012060016000838152602001908152602001600020600101604051610558919061116d565b604051809103902014156109d357600160008281526020019081526020016000206040518060e001604052908160008201805461059490611435565b80601f01602080910402602001604051908101604052809291908181526020018280546105c090611435565b801561060d5780601f106105e25761010080835404028352916020019161060d565b820191906000526020600020905b8154815290600101906020018083116105f057829003601f168201915b5050505050815260200160018201805461062690611435565b80601f016020809104026020016040519081016040528092919081815260200182805461065290611435565b801561069f5780601f106106745761010080835404028352916020019161069f565b820191906000526020600020905b81548152906001019060200180831161068257829003601f168201915b505050505081526020016002820180546106b890611435565b80601f01602080910402602001604051908101604052809291908181526020018280546106e490611435565b80156107315780601f1061070657610100808354040283529160200191610731565b820191906000526020600020905b81548152906001019060200180831161071457829003601f168201915b5050505050815260200160038201805461074a90611435565b80601f016020809104026020016040519081016040528092919081815260200182805461077690611435565b80156107c35780601f10610798576101008083540402835291602001916107c3565b820191906000526020600020905b8154815290600101906020018083116107a657829003601f168201915b505050505081526020016004820180546107dc90611435565b80601f016020809104026020016040519081016040528092919081815260200182805461080890611435565b80156108555780601f1061082a57610100808354040283529160200191610855565b820191906000526020600020905b81548152906001019060200180831161083857829003601f168201915b5050505050815260200160058201805461086e90611435565b80601f016020809104026020016040519081016040528092919081815260200182805461089a90611435565b80156108e75780601f106108bc576101008083540402835291602001916108e7565b820191906000526020600020905b8154815290600101906020018083116108ca57829003601f168201915b5050505050815260200160068201805461090090611435565b80601f016020809104026020016040519081016040528092919081815260200182805461092c90611435565b80156109795780601f1061094e57610100808354040283529160200191610979565b820191906000526020600020905b81548152906001019060200180831161095c57829003601f168201915b505050505081525050826001836109909190611383565b815181106109c7577f4e487b7100000000000000000000000000000000000000000000000000000000600052603260045260246000fd5b60200260200101819052505b80806109de90611467565b915050610524565b5080915050919050565b60008054906101000a900473ffffffffffffffffffffffffffffffffffffffff1681565b60008054906101000a900473ffffffffffffffffffffffffffffffffffffffff1673ffffffffffffffffffffffffffffffffffffffff163373ffffffffffffffffffffffffffffffffffffffff1614610aa2576040517f08c379a0000000000000000000000000000000000000000000000000000000008152600401610a9990611261565b60405180910390fd5b60026000815480929190610ab590611467565b91905055506040518060e00160405280888152602001878152602001868152602001858152602001848152602001838152602001828152506001600060025481526020019081526020016000206000820151816000019080519060200190610b1e929190610bd9565b506020820151816001019080519060200190610b3b929190610bd9565b506040820151816002019080519060200190610b58929190610bd9565b506060820151816003019080519060200190610b75929190610bd9565b506080820151816004019080519060200190610b92929190610bd9565b5060a0820151816005019080519060200190610baf929190610bd9565b5060c0820151816006019080519060200190610bcc929190610bd9565b5090505050505050505050565b828054610be590611435565b90600052602060002090601f016020900481019282610c075760008555610c4e565b82601f10610c2057805160ff1916838001178555610c4e565b82800160010185558215610c4e579182015b82811115610c4d578251825591602001919060010190610c32565b5b509050610c5b9190610c5f565b5090565b5b80821115610c78576000816000905550600101610c60565b5090565b6000610c8f610c8a846112cd565b61129c565b905082815260208101848484011115610ca757600080fd5b610cb28482856113f3565b509392505050565b600082601f830112610ccb57600080fd5b8135610cdb848260208601610c7c565b91505092915050565b600081359050610cf38161154e565b92915050565b600060208284031215610d0b57600080fd5b600082013567ffffffffffffffff811115610d2557600080fd5b610d3184828501610cba565b91505092915050565b600080600080600080600060e0888a031215610d5557600080fd5b600088013567ffffffffffffffff811115610d6f57600080fd5b610d7b8a828b01610cba565b975050602088013567ffffffffffffffff811115610d9857600080fd5b610da48a828b01610cba565b965050604088013567ffffffffffffffff811115610dc157600080fd5b610dcd8a828b01610cba565b955050606088013567ffffffffffffffff811115610dea57600080fd5b610df68a828b01610cba565b945050608088013567ffffffffffffffff811115610e1357600080fd5b610e1f8a828b01610cba565b93505060a088013567ffffffffffffffff811115610e3c57600080fd5b610e488a828b01610cba565b92505060c088013567ffffffffffffffff811115610e6557600080fd5b610e718a828b01610cba565b91505092959891949750929550565b600060208284031215610e9257600080fd5b6000610ea084828501610ce4565b91505092915050565b6000610eb58383611098565b905092915050565b610ec6816113b7565b82525050565b6000610ed782611322565b610ee18185611345565b935083602082028501610ef3856112fd565b8060005b85811015610f2f5784840389528151610f108582610ea9565b9450610f1b83611338565b925060208a01995050600181019050610ef7565b50829750879550505050505092915050565b60008154610f4e81611435565b610f588186611356565b94506001821660008114610f735760018114610f8457610fb7565b60ff19831686528186019350610fb7565b610f8d8561130d565b60005b83811015610faf57815481890152600182019150602081019050610f90565b838801955050505b50505092915050565b6000610fcb8261132d565b610fd58185611361565b9350610fe5818560208601611402565b610fee8161153d565b840191505092915050565b60006110048261132d565b61100e8185611372565b935061101e818560208601611402565b6110278161153d565b840191505092915050565b600061103f602283611372565b91507f4f6e6c7920617574686f72697a656420617574686f726974792063616e20736560008301527f6e640000000000000000000000000000000000000000000000000000000000006020830152604082019050919050565b600060e08301600083015184820360008601526110b58282610fc0565b915050602083015184820360208601526110cf8282610fc0565b915050604083015184820360408601526110e98282610fc0565b915050606083015184820360608601526111038282610fc0565b9150506080830151848203608086015261111d8282610fc0565b91505060a083015184820360a08601526111378282610fc0565b91505060c083015184820360c08601526111518282610fc0565b9150508091505092915050565b611167816113e9565b82525050565b60006111798284610f41565b915081905092915050565b60006020820190506111996000830184610ebd565b92915050565b600060208201905081810360008301526111b98184610ecc565b905092915050565b600060e08201905081810360008301526111db818a610ff9565b905081810360208301526111ef8189610ff9565b905081810360408301526112038188610ff9565b905081810360608301526112178187610ff9565b9050818103608083015261122b8186610ff9565b905081810360a083015261123f8185610ff9565b905081810360c08301526112538184610ff9565b905098975050505050505050565b6000602082019050818103600083015261127a81611032565b9050919050565b6000602082019050611296600083018461115e565b92915050565b6000604051905081810181811067ffffffffffffffff821117156112c3576112c261150e565b5b8060405250919050565b600067ffffffffffffffff8211156112e8576112e761150e565b5b601f19601f8301169050602081019050919050565b6000819050602082019050919050565b60008190508160005260206000209050919050565b600081519050919050565b600081519050919050565b6000602082019050919050565b600082825260208201905092915050565b600081905092915050565b600082825260208201905092915050565b600082825260208201905092915050565b600061138e826113e9565b9150611399836113e9565b9250828210156113ac576113ab6114b0565b5b828203905092915050565b60006113c2826113c9565b9050919050565b600073ffffffffffffffffffffffffffffffffffffffff82169050919050565b6000819050919050565b82818337600083830152505050565b60005b83811015611420578082015181840152602081019050611405565b8381111561142f576000848401525b50505050565b6000600282049050600182168061144d57607f821691505b60208210811415611461576114606114df565b5b50919050565b6000611472826113e9565b91507fffffffffffffffffffffffffffffffffffffffffffffffffffffffffffffffff8214156114a5576114a46114b0565b5b600182019050919050565b7f4e487b7100000000000000000000000000000000000000000000000000000000600052601160045260246000fd5b7f4e487b7100000000000000000000000000000000000000000000000000000000600052602260045260246000fd5b7f4e487b7100000000000000000000000000000000000000000000000000000000600052604160045260246000fd5b6000601f19601f8301169050919050565b611557816113e9565b811461156257600080fd5b5056fea2646970667358221220c4699803ff9bd6f26f1f8048ed32a0e69e90a18a1a4a22542a116edcc0dc13ff64736f6c63430008000033",
  "immutableReferences": {},
  "source": "pragma solidity >=0.7.0 <0.9.0;\r\n\r\ncontract Document{\r\n\r\n    address public manager;\r\n\r\n    constructor(){\r\n        manager=msg.sender;\r\n    }\r\n\r\n    struct Doc{\r\n\r\n        string name;\r\n        string to;\r\n        string imageurl;\r\n        string issuedBy;\r\n        string issuedon;\r\n        string desc;\r\n        string validtill;\r\n        \r\n    }\r\n\r\n\r\n   mapping(uint=>Doc) public docs;\r\n   uint public count;\r\n\r\n    function senddocument(string memory name,string memory to,string memory imageurl,string memory issuedBy,string memory issuedon,string memory desc,string memory validtill)  public {\r\n        \r\n        require(msg.sender==manager,\"Only authorized authority can send\");\r\n        count++;\r\n        docs[count]=Doc(name,to,imageurl,issuedBy,issuedon,desc,validtill);\r\n\r\n        \r\n    }\r\n\r\n    function getdocuments(string memory walletaddress) public returns(Doc[] memory){\r\n    \r\n\r\n            Doc[] memory temp;\r\n            for(uint i=1;i<=count;i++)\r\n            {\r\n                if(keccak256(bytes(docs[i].to))==keccak256(bytes(walletaddress)))\r\n                {\r\n                    temp[i-1]=docs[i];\r\n                }\r\n            }\r\n\r\n            return temp;\r\n    }\r\n\r\n\r\n\r\n\r\n\r\n\r\n\r\n\r\n}",
  "sourcePath": "D:\\DAPP Lottery\\contracts\\DocTransfer.sol",
  "compiler": {
    "name": "solc",
    "version": "0.8.0+commit.c7dfd78e.Emscripten.clang"
  },
  "schemaVersion": "3.4.2",
  "updatedAt": "2022-03-14T11:38:27.467Z",
  "devdoc": {
    "kind": "dev",
    "methods": {},
    "version": 1
  },
  "userdoc": {
    "kind": "user",
    "methods": {},
    "version": 1
  }
}